:100000000C9463000C948B000C948B000C943205C0
:100010000C9432050C9432050C948B000C948B00DC
:100020000C948B000C948B000C948B000C948B0024
:100030000C948B000C948B000C948B000C948B0014
:100040000C94E8040C948B000C94B6040C9490046B
:100050000C948B000C948B000C948B000C948B00F4
:100060000C948B000C948B0000000008000201002F
:100070000003040700000000000000000000000072
:1000800023002600290000000000240027002A0089
:1000900000000000250028002B00040404040404D0
:1000A0000404020202020202030303030303010227
:1000B00004081020408001020408102001020408F6
:1000C0001020F605540C11241FBECFEFD8E0DEBF80
:1000D000CDBF11E0A0E0B1E0ECE2FFE102C005908D
:1000E0000D92AA38B107D9F723E0AAE8B1E001C020
:1000F0001D92A034B207E1F710E0C2E6D0E004C0E0
:100100002197FE010E942E0FC136D107C9F70E9428
:10011000A6070C94890F0C940000AF92BF92CF9267
:10012000DF92EF92FF920F931F93CF93DF936C01B7
:100130007B018B01040F151FEB015E01AE18BF0898
:10014000C017D10759F06991D601ED91FC9101904A
:10015000F081E02DC6010995892B79F7C501DF9162
:10016000CF911F910F91FF90EF90DF90CF90BF90B4
:10017000AF900895FC01538D448D252F30E0842FDE
:1001800090E0821B930B541710F0CF9608950197BF
:100190000895FC01918D828D981761F0A28DAE0FAC
:1001A000BF2FB11D5D968C91928D9F5F9F73928F33
:1001B00090E008958FEF9FEF0895FC01918D828D5F
:1001C000981731F0828DE80FF11D858D90E008952C
:1001D0008FEF9FEF0895FC01918D228D892F90E084
:1001E000805C9F4F821B91098F739927089587ED3B
:1001F00091E00E94EB0021E0892B09F420E0822F9E
:10020000089580E090E0892B29F00E94F700811189
:100210000C9400000895FC01A48DA80FB92FB11D06
:10022000A35ABF4F2C91848D90E001968F7399272C
:10023000848FA689B7892C93A089B1898C9183700A
:1002400080648C93938D848D981306C00288F38903
:10025000E02D80818F7D80830895EF92FF920F9330
:100260001F93CF93DF93EC0181E0888F9B8D8C8D62
:1002700098131AC0E889F989808185FF15C09FB756
:10028000F894EE89FF896083E889F9898081837019
:10029000806480839FBF81E090E0DF91CF911F91C8
:1002A0000F91FF90EF900895F62E0B8D10E00F5FE9
:1002B0001F4F0F731127E02E8C8D8E110CC00FB6BF
:1002C00007FCFACFE889F989808185FFF5CFCE0157
:1002D0000E940B01F1CFEB8DEC0FFD2FF11DE35AC6
:1002E000FF4FF0829FB7F8940B8FEA89FB898081DA
:1002F0008062CFCFCF93DF93EC01888D8823B9F054
:10030000AA89BB89E889F9898C9185FD03C0808120
:1003100086FD0DC00FB607FCF7CF8C9185FFF2CF9D
:10032000808185FFEDCFCE010E940B01E9CFDF91E7
:10033000CF9108952FB7F8946091CF017091D001BB
:100340008091D1019091D2012FBF0895CF93DF9377
:10035000EC018A859B85AC85BD858E839F83A887AC
:10036000B9870E949A016A837B838C839D8381E095
:1003700089838883DF91CF910895CF93DF93EC0138
:100380008E819F81A885B9858A839B83AC83BD8339
:100390000E949A016A877B878C879D8781E0898389
:1003A0008883DF91CF9108952091D5013091D601B6
:1003B0002817390771F49091D3018091D4019817CF
:1003C00041F0E091D301F0E0E657FE4F808190E0EC
:1003D00008958FEF9FEF08950895EF92FF920F9386
:1003E0001F93CF93DF93DC015C96ED90FC905D97BB
:1003F000E114F10479F481E090E013969C938E93DC
:10040000129790E080E0DF91CF911F910F91FF90C4
:10041000EF9008955196ED91FC91529750968C91E2
:100420005097982F90950FB75E962C915E97122F4C
:10043000127021FD6095F8942081112319F1282B69
:100440002083E7012197F1F728E0462F50E0308123
:1004500060FF1AC0382B3083E7012197F1F7BA010A
:1004600075956795215089F7112381F08081892343
:1004700080830FBF5C968D919C910197F1F781E08D
:1004800090E0C1CF2923DCCF3923E5CF9081892BA0
:10049000EFCF2091D5013091D6012817390771F49B
:1004A0008091D4012091D30190E0805C9F4F821B0A
:1004B000910960E470E00E94F80E089590E080E0F9
:1004C00008952091D5013091D60128173907B9F444
:1004D0009091D3018091D401981789F0E091D301D4
:1004E000F0E0E657FE4F80812091D30130E02F5F8E
:1004F0003F4F2F7333272093D30190E008958FEF60
:100500009FEF089590E080E00895FC0101900020A5
:10051000E9F73197AF01481B590BBC0187ED91E01A
:100520000C948D008F929F92AF92BF920F931F9366
:10053000CF93DF93CDB7DEB7A1970FB6F894DEBFA8
:100540000FBECDBF19A2423008F44AE08E010F5D04
:100550001F4F842E912CB12CA12CA50194010E9437
:100560000C0FE62FB901CA01EA30F4F4E05DD801BE
:10057000EE938D01232B242B252B79F790E080E03F
:10058000109719F0CD010E948502A1960FB6F8943C
:10059000DEBF0FBECDBFDF91CF911F910F91BF90F6
:1005A000AF909F908F900895E95CE1CFCF93DF9358
:1005B0000E948502EC0184E291E00E9485028C0F8A
:1005C0009D1FDF91CF9108954F925F926F927F921E
:1005D0008F929F92AF92BF92CF92DF92EF92FF9253
:1005E0001F93CF93DF936B017C01D42FAC019B0150
:1005F0000E94E30E8823D9F087E291E00E948502F1
:10060000EC0184E291E00E9485028C0F9D1FDF9136
:10061000CF911F91FF90EF90DF90CF90BF90AF9060
:100620009F908F907F906F905F904F9008954601BC
:100630005701E894B7F82FEF3FEF4FE75FE7C501A9
:10064000B4010E94E30E81110DC02FEF3FEF4FE781
:100650005FE7C501B4010E94190D18161CF48BE266
:1006600091E0CCCF2FEF3FEF4FE75FE4C701B6013A
:100670000E94710E18161CF48FE291E0BFCF2FEF8D
:100680003FEF4FE75FECC701B6010E94190D87FDF0
:10069000F3CF20E030E0A901C701B6010E94190D97
:1006A000B12CA12C87FF0AC06DE287ED91E00E947A
:1006B0002D015C01F7FAF094F7F8F0941D2F60E03B
:1006C00070E080E09FE3C0E020E030E040E251E4F1
:1006D0000E941E0DCF5FCD17B8F3A70196010E94AF
:1006E000AD0C6B017C010E94900D2B013C010E941E
:1006F000BF0D9B01AC01C701B6010E94AC0C6B01A0
:100700007C014AE0C301B2010E949202EC016EE258
:1007100087ED91E00E942D01C80FD91FCA0DDB1D86
:10072000115008F46ECF20E030E040E251E4C70100
:10073000B6010E94760E4B015C010E94900D6B0188
:10074000F12CE12C4AE0C701B6010E949202C80FC9
:10075000D91FC701B6010E94BF0D9B01AC01C501A5
:10076000B4010E94AC0C6B017C01DACF2F923F9256
:100770004F925F926F927F928F929F92AF92BF92B1
:10078000CF92DF92EF92FF920F931F93CF93DF935D
:10079000D82FC92F8B010E94700C24E630E040E076
:1007A00050E00E940C0F49019B01AC0160E876E922
:1007B00088E990E00E94E80E6B017C01F8019182CB
:1007C0008082ED2FFC2F2191822F022E000C990B9D
:1007D000C0970A97C0F32E3239F51F0180E8882EA2
:1007E00086E9982E88E9A82EB12C9AE0492E512C42
:1007F000612C712CF101C1911F010C2E000CDD0B3D
:10080000E097CA30D10580F4C501B401A30192017B
:100810000E940C0F49015A01DE010E943F0FC60ED3
:10082000D71EE81EF91EE6CFA5E0B0E0A7019601AD
:100830000E94340F6F5F7F4F8F4F9F4F23E030E058
:1008400040E050E00E940C0FF80122833383448380
:1008500055831682DF91CF911F910F91FF90EF90FA
:10086000DF90CF90BF90AF909F908F907F906F90D0
:100870005F904F903F902F9008951F93CF93DF93F9
:10088000EC0118811D3209F42196CE010E94700CF2
:100890009B01AC01A4E6B0E00E94340FAB01BC01A7
:1008A000FE012991822F022E000C990BC0970A9706
:1008B000B8F32E3231F58181082E000C990BC097C8
:1008C0008A309105F0F4AAE0A89F9001A99F300D0D
:1008D0001124C901330FAA0BBB0B480F591F6A1F04
:1008E0007B1F8281082E000C990BC0978A309105DE
:1008F00040F4092E000CAA0BBB0B480F591F6A1FAE
:100900007B1F1D3239F470956095509541955F4F6E
:100910006F4F7F4FCB01BA01DF91CF911F910895A7
:100920001F920F920FB60F9211242F933F934F9364
:100930005F936F937F938F939F93AF93BF93EF9347
:10094000FF9387ED91E00E940B01FF91EF91BF9122
:10095000AF919F918F917F916F915F914F913F9157
:100960002F910F900FBE0F901F9018951F920F920E
:100970000FB60F9211242F938F939F93EF93FF93B2
:10098000E091E701F091E8018081E091ED01F091C3
:10099000EE0182FD1BC090818091F0018F5F8F730B
:1009A0002091F101821741F0E091F001F0E0E9526D
:1009B000FE4F958F8093F001FF91EF919F918F9162
:1009C0002F910F900FBE0F901F9018958081F4CF3C
:1009D0001F920F920FB60F9211242F933F938F9374
:1009E0009F93AF93BF938091CF019091D001A0913D
:1009F000D101B091D2013091CE0123E0230F2D37E8
:100A000058F50196A11DB11D2093CE018093CF0111
:100A10009093D001A093D101B093D2018091CA01EB
:100A20009091CB01A091CC01B091CD010196A11D77
:100A3000B11D8093CA019093CB01A093CC01B093D8
:100A4000CD01BF91AF919F918F913F912F910F90C9
:100A50000FBE0F901F90189526E8230F0296A11D38
:100A6000B11DD2CF1F920F920FB60F9211242F9368
:100A70003F934F935F936F937F938F939F93AF9326
:100A8000BF93EF93FF93E091D501F091D60130979A
:100A900049F0A685B7858585968D91FF14C09C91F8
:100AA0008923A1F4FF91EF91BF91AF919F918F9115
:100AB0007F916F915F914F913F912F910F900FBE5A
:100AC0000F901F9018959C91892361F7A389B48991
:100AD0009C918589809589238C9386899789019734
:100AE000F1F7608D718DA685B785558538E020E0DA
:100AF000CB010197F1F7822F90E095958795282FEC
:100B00004C91452309F02068315091F7868D81FD85
:100B100020958091D40190E001968F7399273091B0
:100B2000D301381799F0A091D401B0E0A657BE4F79
:100B30002C938093D401828D938D0197F1F7A38933
:100B4000B4898C919589892B8C93ACCF868D8160EB
:100B5000868FF1CF90E0FC01E859FF4F2491FC0112
:100B6000E255FF4F3491FC01E656FF4FE491EE232E
:100B7000C9F0222339F0233001F1A8F4213019F112
:100B8000223029F1F0E0EE0FFF1FE057FF4FA59153
:100B9000B4918FB7F894EC91611126C030953E2343
:100BA0003C938FBF08952730A9F02830C9F0243036
:100BB00049F7809180008F7D03C0809180008F77FE
:100BC00080938000DFCF84B58F7784BDDBCF84B581
:100BD0008F7DFBCF8091B0008F778093B000D2CF14
:100BE0008091B0008F7DF9CF3E2BDACF0F931F930A
:100BF000CF93DF931092DA011092D90188EE93E03F
:100C0000A0E0B0E08093DB019093DC01A093DD01D4
:100C1000B093DE0124E031E03093D8012093D70176
:100C200025EC30E03093E4012093E30124EC30E044
:100C30003093E6012093E50120EC30E03093E801A9
:100C40002093E70121EC30E03093EA012093E901A1
:100C500022EC30E03093EC012093EB0126EC30E005
:100C60003093EE012093ED011092F0011092F1010A
:100C70001092F2011092F3011092240310922303B8
:100C80008093250390932603A0932703B093280312
:100C900086E191E090932203809321031092380320
:100CA0001092370310923A031092390310923C03CA
:100CB00010923B0310923E0310923D0360913F035C
:100CC0006E7F6D7F60933F036695617081E068275A
:100CD00083E00E94AA0541EB50E0FA0164918DE99E
:100CE00090E0FC012491222399F030E0220F331F81
:100CF000F901EA57FF4FA591B491F901E057FF4F71
:100D0000259134912FB7F8943C91632B6C932FBFAE
:100D1000FA01449140933103FC018491E82FF0E003
:100D2000EE0FFF1FE057FF4F85919491909333038F
:100D30008093320302EB10E0F8012491CEE9D0E079
:100D4000FE0184918823C9F090E0880F991FFC016F
:100D5000EA57FF4FA591B491FC01E057FF4F459131
:100D600054913FB7F8949C91822F809598239C933F
:100D7000FA019081892380833FBF80913F0381FDE9
:100D800004C061E084E00E94AA0584E080932D0302
:100D9000F801049100932E03FE01C491EC2FF0E0C2
:100DA000EE0FFF1FE458FF4F85919491909330030D
:100DB00080932F03109274021092750210927702A2
:100DC00010927602109278021092790210927A02B2
:100DD00010927B0210927C0210927E0210927D0291
:100DE00010927F0210928002109281021092820271
:100DF0001092830210928502109284021092860251
:100E000010928702109288021092890210928A0230
:100E100010928C0210928B0210928D0210928E0210
:100E200010928F02109290021092910210929602EC
:100E300010929702109298021092990210929A02C0
:100E400010929B021092A4021092A5021092A60288
:100E50001092A7021092A8021092A9021092B20258
:100E60001092B3021092B8021092B9021092BA0214
:100E70001092BB021092C0021092C1021092C602E0
:100E80001092C7021092C8021092C9021092CE02AC
:100E90001092CF021092D4021092D5021092D60274
:100EA0001092D7021092DC021092DD021092E20240
:100EB0001092E3021092E4021092E5021092EA020C
:100EC0001092EB021092F0021092F1021092F202D4
:100ED0001092F3021092F8021092F90282E08093CD
:100EE000090310920A0310920B0310920C03109244
:100EF0000E0310920D031092100310920F03109224
:100F00001103109212031092130310921403109203
:100F100015031092160310921703109218031092E3
:100F2000190310921A0310921B0310921C031092C3
:100F30001D0310921E0310921F03109220031092A3
:100F4000FA02DF91CF911F910F910895789484B5A3
:100F5000826084BD84B5816084BD85B5826085BDB5
:100F600085B5816085BD80916E00816080936E0043
:100F70001092810080918100826080938100809135
:100F800081008160809381008091800081608093E6
:100F900080008091B10084608093B1008091B000A6
:100FA00081608093B00080917A00846080937A00A1
:100FB00080917A00826080937A0080917A008160CB
:100FC00080937A0080917A00806880937A001092F2
:100FD000C100E091E701F091E80182E08083E091B7
:100FE000E301F091E4011082E091E501F091E60166
:100FF0008FEC80831092EF01E091EB01F091EC0116
:1010000086E08083E091E901F091EA0180818061CE
:101010008083E091E901F091EA018081886080831A
:10102000E091E901F091EA01808180688083E0919C
:10103000E901F091EA0180818F7D808310923C0369
:1010400010923B0310923A03109239031092380326
:10105000109237038DE991E090933E0380933D0316
:1010600090912D03963108F047C02DEB30E030937E
:101070003803209337032BE931E030933A03209370
:1010800039032CE231E030933C0320933B03209161
:10109000680084E0983048F031E09E3008F430E099
:1010A00081E001C0880F3A95EAF7822B80936800AF
:1010B0002DE630E0983050F02BE630E09E3030F0F6
:1010C0002CE630E0963110F030E020E0309335032C
:1010D00020933403292F30E0983008F02BC181E0B1
:1010E00001C0880F9A95EAF78093360380913D03FB
:1010F00090913E030197F1F780913B0390913C035F
:10110000892B49F1E091D501F091D60123E0E1323C
:10111000F20709F1309739F0A389B4899C91858948
:10112000809589238C9380913F038E7F80933F032A
:101130001092D4011092D30181E293E09093D601F2
:101140008093D501E0913403F09135038081909133
:101150003603892B808383E391E00E94D602FF242B
:10116000F39480E0682E80E0782E92E0E92E01E092
:1011700081E293E00E944902892B09F4CBC281E20B
:1011800093E00E946102182F809111039091120345
:10119000A0911303B09114030196A11DB11D80937A
:1011A000110390931203A0931303B093140314320A
:1011B00009F48FC2E0910B0315320CF0C8C01A304D
:1011C00019F01D3009F092C2EF3008F03DC1F0E097
:1011D000E650FD4F10828091F902882309F442C144
:1011E0002091FA02822F022E000C990B3FEB320F56
:1011F000363008F0B8C0C7978295807F9091FB0287
:10120000292F092E000C330B4FEB490F463008F005
:10121000B2C027533109820F9091F802891301C19E
:1012200080911D0390911E03A0911F03B091200394
:101230000196A11DB11D80931D0390931E03A093E1
:101240001F03B093200380910C03882399F08091B1
:10125000150390911603A0911703B09118030196FE
:10126000A11DB11D8093150390931603A09317033E
:10127000B0931803C0910903CC2309F485C0C13091
:10128000A1F586E992E00E94BD0184EA92E00E9405
:10129000BD0180910C03882341F187E0E4E8F2E08E
:1012A000A6E7B2E001900D928A95E1F787E0EBE8BE
:1012B000F2E0ADE7B2E001900D928A95E1F70E946D
:1012C0009A01609392027093930280939402909398
:1012D0009502C0937502C093740282EB92E00E9463
:1012E000A60180EC92E00E94A601C0910F03D0916C
:1012F0001003209709F4A8C0E0910F03F0911003A8
:1013000066A177A18EA19FA10E946A0F892B09F087
:101310009BC0BE01CE0140960E94730F0E949A01AD
:1013200068A379A38AA39BA3FDA2FCA20AA4DBA5C0
:10133000C02DDFCF9E3040F42850310981E001C03C
:10134000880F2A95EAF7D0CE2E503109F7CF1A32FE
:1013500009F43ACF1C3209F0C9C18091F802812703
:101360008093F80231CF2156263018F48755910921
:1013700043CFC09741CF9156963018F42755310985
:101380004ACF2053310947CF84EA92E00E94BD0141
:1013900080910C03882321F187E0E4E8F2E0A6E7DE
:1013A000B2E001900D928A95E1F787E0EBE8F2E078
:1013B000ADE7B2E001900D928A95E1F70E949A01A3
:1013C000609392027093930280939402909395029B
:1013D00000937502009374028EEC92E00E94A601C5
:1013E0008091E6029091E702A091E802B091E902B3
:1013F0008093E2029093E302A093E402B093E502AB
:101400000E949A016093DE027093DF028093E002F3
:101410009093E1020093DD020093DC028AEE92E0F9
:1014200062CF8091190390911A03A0911B03B09190
:101430001C030196A11DB11D8093190390931A03FB
:10144000A0931B03B0931C0380910A038F5F8093CA
:101450000A0310920B0381E01A3209F080E08093B6
:10146000F90286CE90910A03911144C06DE371E0B8
:101470008AEF92E00E946A0F892B41F063E471E0E9
:101480008AEF92E00E946A0F892BF1F4009309031E
:1014900080910D0390910E039093100380930F039E
:1014A000C0900F03D0901003C114D10469F26AEF09
:1014B00072E0F60186A197A10E946A0F97FFECC126
:1014C000F60182A593A5E8CF69E471E08AEF92E086
:1014D0000E946A0F892B41F06FE471E08AEF92E07D
:1014E0000E946A0F892B19F410920903D1CFE09260
:1014F0000903CECFE0910903E23009F448C080919E
:10150000FA02882309F443C020E2E29FF00111248B
:10151000E92B3197E932F10508F039C0EE56F54F65
:101520000C942E0FBB0AFC0A030B0A0B0D0B3B0B92
:10153000420B4F0B5C0BC70AC70AC70AC70AC70A88
:10154000C70AC70AC70AC70AC70AC70AC70AC70A13
:10155000C70AC70AC70AC70AC70AC70AC70AC70A03
:10156000C70AC70ABB0AF60AFC0A030B0A0B0D0BD3
:10157000140B210B2E0B8AEF92E00E943D04609326
:10158000AA027093AB028093AC029093AD02C0901C
:101590000F03D0901003B0900A03C114D10409F4D2
:1015A00053CFE0910F03F091100366A177A1F601EC
:1015B00086A197A10E946A0F892B09F045CFF601F9
:1015C00020A531A58B2D90E0821793070CF43CCF1A
:1015D0002817390739F440E150E06AEF72E0C6019C
:1015E0000E947A0FF601C2A4D3A4D5CF91E0813432
:1015F00009F445C090E043C064E872E08AEF92E0ED
:101600000E94B603C4CF91E0833509F090E0909337
:101610008A02BDCF6BE872E0F1CF91E0873509F027
:1016200090E090939102B3CF8AEF92E00E943D0444
:101630006093BC027093BD028093BE029093BF0280
:10164000A6CF8AEF92E00E943D046093CA02709395
:10165000CB028093CC029093CD0299CF8AEF92E097
:101660000E94700C60939C0270939D0280939E0276
:1016700090939F028CCF91E081330CF4BBCF909379
:101680000C0385CF8AEF92E00E94700C6093E60213
:101690007093E7028093E8029093E90278CF8AEF93
:1016A00092E00E943D046093F4027093F5028093EF
:1016B000F6029093F7026BCF8AEF92E00E943D040E
:1016C0006093D8027093D9028093DA029093DB0280
:1016D0005ECF10920B0310920A031092F802E09270
:1016E00009031092F90210920C0342CDEE3040F43F
:1016F00081E08E0F80930B03F0E0E650FD4F1083E6
:101700008091F902811134CD8091F802182710934D
:10171000F8022ECD80917502882309F4B1C085E5C9
:1017200091E00E94D6021092DD026091E202709177
:10173000E3028091E4029091E5024AE00E94920265
:1017400084E291E00E94850286E691E00E94D60242
:1017500010927502609178027091790280917A02FC
:1017600090917B020E94BF0D28E23BE64EE65EE4CC
:101770000E941E0D4B015C01609176027091770210
:1017800090E080E00E94BF0D9B01AC01C501B40157
:101790000E94AD0C20917C022111905846E050E04F
:1017A0000E94E4021092750260917F0270918002A3
:1017B00080918102909182020E94BF0D28E23BE657
:1017C0004EE65EE40E941E0D4B015C0160917D02BD
:1017D00070917E0290E080E00E94BF0D9B01AC0101
:1017E000C501B4010E94AD0C2091830221119058D3
:1017F00046E050E00E94E40281E791E00E94D602B8
:101800001092B3026091B8027091B9028091BA024D
:101810009091BB020E94C10D2EEB3CE443E95FE3D3
:101820000E94760E20E030E048EC52E40E941E0D4B
:1018300042E050E00E94E4028DE791E00E94D6026F
:101840001092CF026091D4027091D5028091D6029D
:101850009091D7020E94C10D28E439EF41E550E490
:101860000E94760E20E030E048EC52E40E941E0D0B
:1018700042E050E00E94E40286E291E00E94D6023B
:101880006114710409F474CC0E94F700882309F4F0
:101890006FCC0E9400006CCC892B09F4D5CD10923E
:1018A000100310920F03D0CD86E191E090932203B4
:1018B000809321038091D5019091D601815293406C
:1018C00071F4E0913403F0913503908180913603F7
:1018D0008095892380831092D6011092D5010895B6
:1018E0001F93FC0199278827BC01E89411911032BD
:1018F000E9F3193010F01E30C8F31B3251F01D32DD
:1019000049F4689406C00E94970C610F711D811DF7
:10191000911D119110531A30B0F33EF490958095BB
:10192000709561957F4F8F4F9F4F1F910895592F4D
:10193000482F372F262F660F771F881F991F660F96
:10194000771F881F991F620F731F841F951F660FD3
:10195000771F881F991F08955058BB27AA270E94F8
:10196000C40C0C94370E0E94290E38F00E94300EE1
:1019700020F039F49F3F19F426F40C94260E0EF44F
:10198000E095E7FB0C94200EE92F0E94480E58F3D7
:10199000BA17620773078407950720F079F4A6F554
:1019A0000C946A0E0EF4E0950B2EBA2FA02D0B01AD
:1019B000B90190010C01CA01A0011124FF27591B94
:1019C00099F0593F50F4503E68F11A16F040A22F9A
:1019D000232F342F4427585FF3CF4695379527950B
:1019E000A795F0405395C9F77EF41F16BA0B620B0A
:1019F000730B840BBAF09150A1F0FF0FBB1F661F51
:101A0000771F881FC2F70EC0BA0F621F731F841F93
:101A100048F4879577956795B795F7959E3F08F0B9
:101A2000B0CF9395880F08F09927EE0F979587957B
:101A300008950E94FC0D08F481E008950E94320D83
:101A40000C94370E0E94300E58F00E94290E40F080
:101A500029F45F3F29F00C94200E51110C946B0E69
:101A60000C94260E0E94480E68F39923B1F3552377
:101A700091F3951B550BBB27AA27621773078407A1
:101A800038F09F5F5F4F220F331F441FAA1FA9F337
:101A900035D00E2E3AF0E0E832D091505040E69525
:101AA000001CCAF72BD0FE2F29D0660F771F881F86
:101AB000BB1F261737074807AB07B0E809F0BB0B79
:101AC000802DBF01FF2793585F4F3AF09E3F51058D
:101AD00078F00C94200E0C946B0E5F3FE4F3983E6C
:101AE000D4F3869577956795B795F7959F5FC9F776
:101AF000880F911D9695879597F90895E1E0660FF7
:101B0000771F881FBB1F621773078407BA0720F06F
:101B1000621B730B840BBA0BEE1F88F7E0950895D8
:101B20000E94500E88F09F5798F0B92F9927B7510F
:101B3000B0F0E1F0660F771F881F991F1AF0BA9571
:101B4000C9F714C0B13091F00E946A0EB1E0089557
:101B50000C946A0E672F782F8827B85F39F0B93F49
:101B6000CCF3869577956795B395D9F73EF4909524
:101B70008095709561957F4F8F4F9F4F0895E894A2
:101B800009C097FB3EF490958095709561957F4FC5
:101B90008F4F9F4F9923A9F0F92F96E9BB27939573
:101BA000F695879577956795B795F111F8CFFAF483
:101BB000BB0F11F460FF1BC06F5F7F4F8F4F9F4FB4
:101BC00016C0882311F096E911C0772321F09EE812
:101BD000872F762F05C0662371F096E8862F70E078
:101BE00060E02AF09A95660F771F881FDAF7880F52
:101BF0009695879597F90895990F0008550FAA0BA8
:101C0000E0E8FEEF16161706E807F907C0F012160F
:101C10001306E407F50798F0621B730B840B950B12
:101C200039F40A2661F0232B242B252B21F4089567
:101C30000A2609F4A140A6958FEF811D811D089504
:101C400097F99F6780E870E060E008959FEF80EC6F
:101C5000089500240A941616170618060906089512
:101C600000240A9412161306140605060895092E78
:101C70000394000C11F4882352F0BB0F40F4BF2BE7
:101C800011F460FF04C06F5F7F4F8F4F9F4F089527
:101C900057FD9058440F551F59F05F3F71F047951D
:101CA000880F97FB991F61F09F3F79F08795089502
:101CB000121613061406551FF2CF4695F1DF08C021
:101CC000161617061806991FF1CF8695710561053E
:101CD00008940895E894BB2766277727CB0197F9E6
:101CE00008950E94FC0D08F48FEF08950E94890E5C
:101CF0000C94370E0E94290E38F00E94300E20F00E
:101D0000952311F00C94200E0C94260E11240C94A3
:101D10006B0E0E94480E70F3959FC1F3950F50E033
:101D2000551F629FF001729FBB27F00DB11D639F8D
:101D3000AA27F00DB11DAA1F649F6627B00DA11D33
:101D4000661F829F2227B00DA11D621F739FB00DD9
:101D5000A11D621F839FA00D611D221F749F332749
:101D6000A00D611D231F849F600D211D822F762FE2
:101D70006A2F11249F5750409AF0F1F088234AF0BF
:101D8000EE0FFF1FBB1F661F771F881F915050402B
:101D9000A9F79E3F510580F00C94200E0C946B0E19
:101DA0005F3FE4F3983ED4F3869577956795B795B2
:101DB000F795E7959F5FC1F7FE2B880F911D9695CC
:101DC000879597F908950E94FC0D880B990B08954B
:101DD000DB018F939F930E94340FBF91AF91A29F1D
:101DE000800D911DA39F900DB29F900D1124089519
:101DF00097FB072E16F4009407D077FD09D00E94B8
:101E0000470F07FC05D03EF4909581959F4F0895AC
:101E1000709561957F4F0895A1E21A2EAA1BBB1BF6
:101E2000FD010DC0AA1FBB1FEE1FFF1FA217B307A6
:101E3000E407F50720F0A21BB30BE40BF50B661FBC
:101E4000771F881F991F1A9469F760957095809580
:101E500090959B01AC01BD01CF010895EE0FFF1FCE
:101E60000590F491E02D09940E945B0FA59F900DC1
:101E7000B49F900DA49F800D911D11240895B7FF6C
:101E80000C94340F0E94340F821B930B0895AA1BED
:101E9000BB1B51E107C0AA1FBB1FA617B70710F055
:101EA000A61BB70B881F991F5A95A9F78095909587
:101EB000BC01CD010895A29FB001B39FC001A39FB3
:101EC000700D811D1124911DB29F700D811D112473
:101ED000911D0895FB01DC018D9101908019011085
:101EE000D9F3990B0895FB01DC0101900D920020BC
:101EF000E1F70895FB01DC014150504048F00190AA
:101F00000D920020C9F701C01D9241505040E0F7EA
:101F1000089510E0C2E6D0E004C0FE010E942E0F3A
:0C1F20002196C336D107C9F7F894FFCF13
:101F2C00000000002D018D00BA007A01EB00C90001
:101F3C00DD0000000000ED018D008202EC01490281
:101F4C006102D4010D0A006E616E00696E66006F4D
:101F5C007666004750532053746172740047505298
:101F6C004D4300474E524D430047504747410047B1
:101F7C004E47474100536174656C6C69746520432E
:101F8C006F756E743A004C61746974756465203AAF
:101F9C00005370656564204D5048203A00416C74C4
:0A1FAC006974757465203A20000086
:107E0000112484B714BE81FFF0D085E080938100F7
:107E100082E08093C00088E18093C10086E0809377
:107E2000C20080E18093C4008EE0C9D0259A86E02C
:107E300020E33CEF91E0309385002093840096BBD3
:107E4000B09BFECF1D9AA8958150A9F7CC24DD24C4
:107E500088248394B5E0AB2EA1E19A2EF3E0BF2EE7
:107E6000A2D0813461F49FD0082FAFD0023811F036
:107E7000013811F484E001C083E08DD089C08234E0
:107E800011F484E103C0853419F485E0A6D080C0E4
:107E9000853579F488D0E82EFF2485D0082F10E0AE
:107EA000102F00270E291F29000F111F8ED06801E7
:107EB0006FC0863521F484E090D080E0DECF843638
:107EC00009F040C070D06FD0082F6DD080E0C81688
:107ED00080E7D80618F4F601B7BEE895C0E0D1E017
:107EE00062D089930C17E1F7F0E0CF16F0E7DF06D8
:107EF00018F0F601B7BEE89568D007B600FCFDCFD4
:107F0000A601A0E0B1E02C9130E011968C91119780
:107F100090E0982F8827822B932B1296FA010C0160
:107F200087BEE89511244E5F5F4FF1E0A038BF0790
:107F300051F7F601A7BEE89507B600FCFDCF97BE46
:107F4000E89526C08437B1F42ED02DD0F82E2BD052
:107F50003CD0F601EF2C8F010F5F1F4F84911BD097
:107F6000EA94F801C1F70894C11CD11CFA94CF0C13
:107F7000D11C0EC0853739F428D08EE10CD085E9AC
:107F80000AD08FE07ACF813511F488E018D01DD067
:107F900080E101D065CF982F8091C00085FFFCCF94
:107FA0009093C60008958091C00087FFFCCF809118
:107FB000C00084FD01C0A8958091C6000895E0E648
:107FC000F0E098E1908380830895EDDF803219F02E
:107FD00088E0F5DFFFCF84E1DECF1F93182FE3DFCA
:107FE0001150E9F7F2DF1F91089580E0E8DFEE27F6
:047FF000FF270994CA
:027FFE00040479
:0400000300007E007B
:00000001FF
